{
  "_format": "hh-sol-artifact-1",
  "contractName": "chai",
  "sourceName": "contracts/chai.sol",
  "abi": [
    {
      "inputs": [],
      "stateMutability": "nonpayable",
      "type": "constructor"
    },
    {
      "inputs": [
        {
          "internalType": "string",
          "name": "person",
          "type": "string"
        },
        {
          "internalType": "string",
          "name": "date",
          "type": "string"
        },
        {
          "internalType": "string",
          "name": "time",
          "type": "string"
        }
      ],
      "name": "buyChai2",
      "outputs": [],
      "stateMutability": "payable",
      "type": "function"
    },
    {
      "inputs": [],
      "name": "getMemos",
      "outputs": [
        {
          "components": [
            {
              "internalType": "string",
              "name": "name",
              "type": "string"
            },
            {
              "internalType": "string",
              "name": "message",
              "type": "string"
            },
            {
              "internalType": "string",
              "name": "time",
              "type": "string"
            },
            {
              "internalType": "uint256",
              "name": "timestamp",
              "type": "uint256"
            },
            {
              "internalType": "address",
              "name": "from",
              "type": "address"
            }
          ],
          "internalType": "struct chai.Memo[]",
          "name": "",
          "type": "tuple[]"
        }
      ],
      "stateMutability": "view",
      "type": "function"
    }
  ],
  "bytecode": "0x608060405234801561001057600080fd5b5033600160006101000a81548173ffffffffffffffffffffffffffffffffffffffff021916908373ffffffffffffffffffffffffffffffffffffffff160217905550610c9c806100616000396000f3fe6080604052600436106100295760003560e01c80632a6714ca1461002e578063865c51721461004a575b600080fd5b610048600480360381019061004391906105d6565b610075565b005b34801561005657600080fd5b5061005f6102f2565b60405161006c91906108ba565b60405180910390f35b600034116100b8576040517f08c379a00000000000000000000000000000000000000000000000000000000081526004016100af90610939565b60405180910390fd5b600160009054906101000a900473ffffffffffffffffffffffffffffffffffffffff1673ffffffffffffffffffffffffffffffffffffffff166108fc349081150290604051600060405180830381858888f19350505050158015610120573d6000803e3d6000fd5b5060006040518060a0016040528088888080601f016020809104026020016040519081016040528093929190818152602001838380828437600081840152601f19601f82011690508083019250505050505050815260200186868080601f016020809104026020016040519081016040528093929190818152602001838380828437600081840152601f19601f82011690508083019250505050505050815260200184848080601f016020809104026020016040519081016040528093929190818152602001838380828437600081840152601f19601f8201169050808301925050505050505081526020014281526020013373ffffffffffffffffffffffffffffffffffffffff168152509080600181540180825580915050600190039060005260206000209060050201600090919091909150600082015181600001908161026a9190610b94565b5060208201518160010190816102809190610b94565b5060408201518160020190816102969190610b94565b506060820151816003015560808201518160040160006101000a81548173ffffffffffffffffffffffffffffffffffffffff021916908373ffffffffffffffffffffffffffffffffffffffff1602179055505050505050505050565b60606000805480602002602001604051908101604052809291908181526020016000905b8282101561055e57838290600052602060002090600502016040518060a0016040529081600082018054610349906109b7565b80601f0160208091040260200160405190810160405280929190818152602001828054610375906109b7565b80156103c25780601f10610397576101008083540402835291602001916103c2565b820191906000526020600020905b8154815290600101906020018083116103a557829003601f168201915b505050505081526020016001820180546103db906109b7565b80601f0160208091040260200160405190810160405280929190818152602001828054610407906109b7565b80156104545780601f1061042957610100808354040283529160200191610454565b820191906000526020600020905b81548152906001019060200180831161043757829003601f168201915b5050505050815260200160028201805461046d906109b7565b80601f0160208091040260200160405190810160405280929190818152602001828054610499906109b7565b80156104e65780601f106104bb576101008083540402835291602001916104e6565b820191906000526020600020905b8154815290600101906020018083116104c957829003601f168201915b50505050508152602001600382015481526020016004820160009054906101000a900473ffffffffffffffffffffffffffffffffffffffff1673ffffffffffffffffffffffffffffffffffffffff1673ffffffffffffffffffffffffffffffffffffffff168152505081526020019060010190610316565b50505050905090565b600080fd5b600080fd5b600080fd5b600080fd5b600080fd5b60008083601f84011261059657610595610571565b5b8235905067ffffffffffffffff8111156105b3576105b2610576565b5b6020830191508360018202830111156105cf576105ce61057b565b5b9250929050565b600080600080600080606087890312156105f3576105f2610567565b5b600087013567ffffffffffffffff8111156106115761061061056c565b5b61061d89828a01610580565b9650965050602087013567ffffffffffffffff8111156106405761063f61056c565b5b61064c89828a01610580565b9450945050604087013567ffffffffffffffff81111561066f5761066e61056c565b5b61067b89828a01610580565b92509250509295509295509295565b600081519050919050565b600082825260208201905092915050565b6000819050602082019050919050565b600081519050919050565b600082825260208201905092915050565b60005b838110156106f05780820151818401526020810190506106d5565b60008484015250505050565b6000601f19601f8301169050919050565b6000610718826106b6565b61072281856106c1565b93506107328185602086016106d2565b61073b816106fc565b840191505092915050565b6000819050919050565b61075981610746565b82525050565b600073ffffffffffffffffffffffffffffffffffffffff82169050919050565b600061078a8261075f565b9050919050565b61079a8161077f565b82525050565b600060a08301600083015184820360008601526107bd828261070d565b915050602083015184820360208601526107d7828261070d565b915050604083015184820360408601526107f1828261070d565b91505060608301516108066060860182610750565b5060808301516108196080860182610791565b508091505092915050565b600061083083836107a0565b905092915050565b6000602082019050919050565b60006108508261068a565b61085a8185610695565b93508360208202850161086c856106a6565b8060005b858110156108a857848403895281516108898582610824565b945061089483610838565b925060208a01995050600181019050610870565b50829750879550505050505092915050565b600060208201905081810360008301526108d48184610845565b905092915050565b600082825260208201905092915050565b7f506c6561736520706179206d6f7265207468616e203020657468657200000000600082015250565b6000610923601c836108dc565b915061092e826108ed565b602082019050919050565b6000602082019050818103600083015261095281610916565b9050919050565b7f4e487b7100000000000000000000000000000000000000000000000000000000600052604160045260246000fd5b7f4e487b7100000000000000000000000000000000000000000000000000000000600052602260045260246000fd5b600060028204905060018216806109cf57607f821691505b6020821081036109e2576109e1610988565b5b50919050565b60008190508160005260206000209050919050565b60006020601f8301049050919050565b600082821b905092915050565b600060088302610a4a7fffffffffffffffffffffffffffffffffffffffffffffffffffffffffffffffff82610a0d565b610a548683610a0d565b95508019841693508086168417925050509392505050565b6000819050919050565b6000610a91610a8c610a8784610746565b610a6c565b610746565b9050919050565b6000819050919050565b610aab83610a76565b610abf610ab782610a98565b848454610a1a565b825550505050565b600090565b610ad4610ac7565b610adf818484610aa2565b505050565b5b81811015610b0357610af8600082610acc565b600181019050610ae5565b5050565b601f821115610b4857610b19816109e8565b610b22846109fd565b81016020851015610b31578190505b610b45610b3d856109fd565b830182610ae4565b50505b505050565b600082821c905092915050565b6000610b6b60001984600802610b4d565b1980831691505092915050565b6000610b848383610b5a565b9150826002028217905092915050565b610b9d826106b6565b67ffffffffffffffff811115610bb657610bb5610959565b5b610bc082546109b7565b610bcb828285610b07565b600060209050601f831160018114610bfe5760008415610bec578287015190505b610bf68582610b78565b865550610c5e565b601f198416610c0c866109e8565b60005b82811015610c3457848901518255600182019150602085019450602081019050610c0f565b86831015610c515784890151610c4d601f891682610b5a565b8355505b6001600288020188555050505b50505050505056fea2646970667358221220648e7149a958261e67d73811931e247c91a79c578fe6eb2ebc9c3c06b338fdc464736f6c63430008110033",
  "linkReferences": {},
  "deployedLinkReferences": {}
}